:020000040800F2
:1000000000500020115D0008C9170008CB17000838
:10001000CD170008CF170008D11700080000000016
:10002000000000000000000000000000D3170008DE
:10003000D517000800000000D7170008D9170008DE
:10004000595D0008595D0008595D0008595D0008B8
:10005000595D0008595D0008595D0008595D0008A8
:10006000595D0008595D0008595D0008595D000898
:10007000595D0008595D0008595D0008595D000888
:10008000595D0008595D0008595D0008595D000878
:10009000595D0008595D0008595D0008595D000868
:1000A000595D0008595D0008595D0008595D000858
:1000B000595D0008595D0008595D0008595D000848
:1000C000595D0008595D0008595D0008595D000838
:1000D000595D0008595D0008595D0008595D000828
:1000E000E1170008595D0008595D00080000000094
:1000F0000000000000000000000000000000000000
:0C01000000000000000000005FF808F1A3
:1001100010B5054C237833B9044B13B10448AFF341
:1001200000800123237010BD200A00200000000081
:100130007CC3000808B5034B1BB103490348AFF368
:10014000008008BD00000000240A00207CC30008D5
:1001500081F0004102E000BF83F0004330B54FEA78
:1001600041044FEA430594EA050F08BF90EA020FE5
:100170001FBF54EA000C55EA020C7FEA645C7FEA78
:10018000655C00F0E2804FEA5454D4EB5555B8BF9B
:100190006D420CDD2C4480EA020281EA030382EA0C
:1001A000000083EA010180EA020281EA0303362D9E
:1001B00088BF30BD11F0004F4FEA01314FF4801C71
:1001C0004CEA113102D0404261EB410113F0004F83
:1001D0004FEA03334CEA133302D0524263EB43033A
:1001E00094EA050F00F0A780A4F10104D5F1200ED8
:1001F0000DDB02FA0EFC22FA05F2801841F1000133
:1002000003FA0EF2801843FA05F359410EE0A5F106
:1002100020050EF1200E012A03FA0EFC28BF4CF037
:10022000020C43FA05F3C01851EBE37101F00045ED
:1002300007D54FF0000EDCF1000C7EEB00006EEBFA
:100240000101B1F5801F1BD3B1F5001F0CD3490884
:100250005FEA30004FEA3C0C04F101044FEA4452DB
:1002600012F5800F80F09A80BCF1004F08BF5FEA62
:10027000500C50F1000041EB045141EA050130BD42
:100280005FEA4C0C404141EB0101013C28BFB1F554
:10029000801FE9D291F0000F04BF01460020B1FA9F
:1002A00081F308BF2033A3F10B03B3F120020CDA72
:1002B0000C3208DD02F1140CC2F10C0201FA0CF050
:1002C00021FA02F10CE002F11402D8BFC2F1200CB5
:1002D00001FA02F120FA0CFCDCBF41EA0C0190406B
:1002E000E41AA2BF01EB0451294330BD6FEA0404B4
:1002F0001F3C1CDA0C340EDC04F11404C4F120029F
:1003000020FA04F001FA02F340EA030021FA04F3B0
:1003100045EA030130BDC4F10C04C4F1200220FA07
:1003200002F001FA04F340EA0300294630BD21FA45
:1003300004F0294630BD94F0000F83F4801306BF0B
:1003400081F480110134013D4EE77FEA645C18BFFF
:100350007FEA655C29D094EA050F08BF90EA020F96
:1003600005D054EA000C04BF1946104630BD91EA8E
:10037000030F1EBF0021002030BD5FEA545C05D191
:100380004000494128BF41F0004130BD14F58004D0
:100390003CBF01F5801130BD01F0004545F0FE4144
:1003A00041F470014FF0000030BD7FEA645C1ABF79
:1003B000194610467FEA655C1CBF0B46024650EAB0
:1003C000013406BF52EA033591EA030F41F40021DC
:1003D00030BD00BF90F0000F04BF0021704730B562
:1003E0004FF4806404F132044FF000054FF0000137
:1003F00050E700BF90F0000F04BF0021704730B5F8
:100400004FF4806404F1320410F0004548BF4042CC
:100410004FF000013EE700BF42004FEAE2014FEA21
:1004200031014FEA02701FBF12F07F4393F07F4FFC
:1004300081F06051704732F07F4208BF704793F0FF
:100440007F4F04BF41F40021704730B54FF4607412
:1004500001F0004521F000411CE700BF50EA010215
:1004600008BF704730B54FF000050AE050EA0102BE
:1004700008BF704730B511F0004502D5404261EB2E
:1004800041014FF4806404F132045FEA915C3FF46F
:10049000D8AE4FF003025FEADC0C18BF03325FEA0C
:1004A000DC0C18BF033202EBDC02C2F1200300FABD
:1004B00003FC20FA02F001FA03FE40EA0E0021FAE2
:1004C00002F11444BDE600BF70B54FF0FF0C4CF4D0
:1004D000E06C1CEA11541DBF1CEA135594EA0C0F82
:1004E00095EA0C0F00F0DEF82C4481EA030621EABD
:1004F0004C5123EA4C5350EA013518BF52EA0335F8
:1005000041F4801143F4801338D0A0FB02CE4FF0A9
:100510000005E1FB02E506F00042E0FB03E54FF0D9
:100520000006E1FB03569CF0000F18BF4EF0010ED1
:10053000A4F1FF04B6F5007F64F5407404D25FEACD
:100540004E0E6D4146EB060642EAC62141EA555180
:100550004FEAC52040EA5E504FEACE2EB4F1FD0CC2
:1005600088BFBCF5E06F1ED8BEF1004F08BF5FEA40
:10057000500E50F1000041EB045170BD06F00046F2
:1005800046EA010140EA020081EA0301B4EB5C049F
:10059000C2BFD4EB0C0541EA045170BD41F4801197
:1005A0004FF0000E013C00F3AB8014F1360FDEBFBC
:1005B000002001F0004170BDC4F10004203C35DA98
:1005C0000C341BDC04F11404C4F1200500FA05F31B
:1005D00020FA04F001FA05F240EA020001F00042BC
:1005E00021F0004110EBD37021FA04F642EB060132
:1005F0005EEA430E08BF20EAD37070BDC4F10C045C
:10060000C4F1200500FA04F320FA05F001FA04F21F
:1006100040EA020001F0004110EBD37041F100010B
:100620005EEA430E08BF20EAD37070BDC4F1200516
:1006300000FA05F24EEA020E20FA04F301FA05F27E
:1006400043EA020321FA04F001F0004121FA04F226
:1006500020EA020000EBD3705EEA430E08BF20EAF6
:10066000D37070BD94F0000F0FD101F00046400030
:1006700041EB010111F4801F08BF013CF7D041EAB2
:10068000060195F0000F18BF704703F000465200B6
:1006900043EB030313F4801F08BF013DF7D043EA87
:1006A0000603704794EA0C0F0CEA135518BF95EA3D
:1006B0000C0F0CD050EA410618BF52EA4306D1D1C4
:1006C00081EA030101F000414FF0000070BD50EAE3
:1006D000410606BF1046194652EA430619D094EA6D
:1006E0000C0F02D150EA013613D195EA0C0F05D157
:1006F00052EA03361CBF104619460AD181EA0301AB
:1007000001F0004141F0FE4141F470014FF0000062
:1007100070BD41F0FE4141F4780170BD70B54FF0FD
:10072000FF0C4CF4E06C1CEA11541DBF1CEA13557D
:1007300094EA0C0F95EA0C0F00F0A7F8A4EB05045F
:1007400081EA030E52EA03354FEA013100F0888056
:100750004FEA03334FF0805545EA131343EA12631F
:100760004FEA022245EA111545EA10654FEA0026D4
:100770000EF000419D4208BF964244F1FD0404F58D
:10078000407402D25B084FEA3202B61A65EB0305E9
:100790005B084FEA32024FF480104FF4002CB6EBA6
:1007A000020E75EB030E22BFB61A754640EA0C0026
:1007B0005B084FEA3202B6EB020E75EB030E22BF66
:1007C000B61A754640EA5C005B084FEA3202B6EBA7
:1007D000020E75EB030E22BFB61A754640EA9C0066
:1007E0005B084FEA3202B6EB020E75EB030E22BF36
:1007F000B61A754640EADC0055EA060E18D04FEAF4
:10080000051545EA16754FEA06164FEAC30343EA93
:1008100052734FEAC2025FEA1C1CC0D111F4801F60
:100820000BD141EA00014FF000004FF0004CB6E759
:1008300011F4801F04BF01430020B4F1FD0C88BFF8
:10084000BCF5E06F3FF6AFAEB5EB030C04BFB6EB03
:10085000020C5FEA500C50F1000041EB045170BDF6
:100860000EF0004E4EEA113114EB5C04C2BFD4EB23
:100870000C0541EA045170BD41F480114FF0000EA7
:10088000013C90E645EA060E8DE60CEA135594EA23
:100890000C0F08BF95EA0C0F3FF43BAF94EA0C0F26
:1008A0000AD150EA01347FF434AF95EA0C0F7FF49B
:1008B00025AF104619462CE795EA0C0F06D152EAEF
:1008C00003353FF4FDAE1046194622E750EA4106D3
:1008D00018BF52EA43067FF4C5AE50EA41047FF4E4
:1008E0000DAF52EA43057FF4EBAE12E74FEA410247
:1008F000B2F1E04324BFB3F5001CDCF1FE5C0DD97E
:1009000001F0004C4FEAC0024CEA5070B2F1004FC7
:1009100040EB830008BF20F00100704711F0804FCA
:1009200021D113F13872BCBF01F00040704741F48F
:1009300080114FEA5252C2F11802C2F1200C10FA93
:100940000CF320FA02F018BF40F001004FEAC12377
:100950004FEAD32303FA0CFC40EA0C0023FA02F31B
:100960004FEA4303CCE77FEA625307D150EA0133F1
:100970001EBF4FF0FE4040F44000704701F00040C1
:1009800040F0FE4040F40000704700BF80F000409F
:1009900002E000BF81F0004142001FBF5FEA410357
:1009A00092EA030F7FEA226C7FEA236C6AD04FEA57
:1009B0001262D2EB1363C1BFD2184140484041409C
:1009C000B8BF5B42192B88BF704710F0004F40F44E
:1009D000000020F07F4018BF404211F0004F41F46A
:1009E000000121F07F4118BF494292EA030F3FD036
:1009F000A2F1010241FA03FC10EB0C00C3F1200349
:100A000001FA03F100F0004302D5494260EB4000D7
:100A1000B0F5000F13D3B0F1807F06D340084FEA42
:100A2000310102F10102FE2A51D2B1F1004F40EB37
:100A3000C25008BF20F0010040EA0300704749009F
:100A400040EB0000013A28BFB0F5000FEDD2B0FA3C
:100A500080FCACF1080CB2EB0C0200FA0CF0AABF5F
:100A600000EBC25052421843BCBFD04018437047FD
:100A700092F0000F81F4000106BF80F40000013203
:100A8000013BB5E74FEA41037FEA226C18BF7FEADA
:100A9000236C21D092EA030F04D092F0000F08BF1C
:100AA0000846704790EA010F1CBF0020704712F003
:100AB0007F4F04D1400028BF40F00040704712F142
:100AC00000723CBF00F50000704700F0004343F0A7
:100AD000FE4040F4000070477FEA226216BF0846DD
:100AE0007FEA23630146420206BF5FEA412390EAA0
:100AF000010F40F4800070474FF0000304E000BF96
:100B000010F0004348BF40425FEA000C08BF704746
:100B100043F0964301464FF000001CE050EA01020A
:100B200008BF70474FF000030AE000BF50EA01021F
:100B300008BF704711F0004302D5404261EB41010C
:100B40005FEA010C02BF84460146002043F0B64331
:100B500008BFA3F18053A3F50003BCFA8CF2083A56
:100B6000A3EBC25310DB01FA02FC634400FA02FC5F
:100B7000C2F12002BCF1004F20FA02F243EB020066
:100B800008BF20F00100704702F1200201FA02FCC8
:100B9000C2F1200250EA4C0021FA02F243EB0200BB
:100BA00008BF20EADC7070474FF0FF0C1CEAD052FF
:100BB0001EBF1CEAD15392EA0C0F93EA0C0F6FD0C0
:100BC0001A4480EA010C400218BF5FEA41211ED09E
:100BD0004FF0006343EA501043EA5111A0FB01318A
:100BE0000CF00040B1F5000F3EBF490041EAD3715F
:100BF0005B0040EA010062F17F02FD2A1DD8B3F1DB
:100C0000004F40EBC25008BF20F00100704790F049
:100C1000000F0CF0004C08BF49024CEA502040EA9B
:100C200051207F3AC2BFD2F1FF0340EAC250704761
:100C300040F400004FF00003013A5DDC12F1190F9F
:100C4000DCBF00F000407047C2F10002410021FA11
:100C500002F1C2F1200200FA02FC5FEA310040F129
:100C6000000053EA4C0308BF20EADC70704792F0A2
:100C7000000F00F0004C02BF400010F4000F013ADA
:100C8000F9D040EA0C0093F0000F01F0004C02BFD5
:100C9000490011F4000F013BF9D041EA0C018FE744
:100CA0000CEAD15392EA0C0F18BF93EA0C0F0AD04A
:100CB00030F0004C18BF31F0004CD8D180EA010070
:100CC00000F00040704790F0000F17BF90F0004F09
:100CD000084691F0000F91F0004F14D092EA0C0FEB
:100CE00001D142020FD193EA0C0F03D14B0218BF7E
:100CF000084608D180EA010000F0004040F0FE40C4
:100D000040F40000704740F0FE4040F4400070475F
:100D10004FF0FF0C1CEAD0521EBF1CEAD15392EADE
:100D20000C0F93EA0C0F69D0A2EB030280EA010CCE
:100D300049024FEA402037D04FF0805343EA111167
:100D400043EA10130CF000408B4238BF5B0042F1C5
:100D50007D024FF4000C8B4224BF5B1A40EA0C006A
:100D6000B3EB510F24BFA3EB510340EA5C00B3EB9C
:100D7000910F24BFA3EB910340EA9C00B3EBD10F8A
:100D800024BFA3EBD10340EADC001B0118BF5FEADC
:100D90001C1CE0D1FD2A3FF650AF8B4240EBC25005
:100DA00008BF20F0010070470CF0004C4CEA5020C6
:100DB0007F32C2BFD2F1FF0340EAC250704740F415
:100DC00000004FF00003013A37E792F0000F00F007
:100DD000004C02BF400010F4000F013AF9D040EA85
:100DE0000C0093F0000F01F0004C02BF490011F419
:100DF000000F013BF9D041EA0C0195E70CEAD15311
:100E000092EA0C0F08D142027FF47DAF93EA0C0FF7
:100E10007FF470AF084676E793EA0C0F04D14B02DB
:100E20003FF44CAF08466EE730F0004C18BF31F08D
:100E3000004CCAD130F000427FF45CAF31F0004387
:100E40007FF43CAF5FE700BF4FF0FF3C06E000BF20
:100E50004FF0010C02E000BF4FF0010C4DF804CD43
:100E60004FEA40024FEA41037FEA226C18BF7FEA53
:100E7000236C11D001B052EA530C18BF90EA010F55
:100E800058BFB2EB030088BFC81738BF6FEAE170E4
:100E900018BF40F0010070477FEA226C02D15FEA80
:100EA000402C05D17FEA236CE4D15FEA412CE1D0EC
:100EB0005DF8040B704700BF844608466146FFE7B3
:100EC0000FB5FFF7C9FF002848BF10F1000F0FBD95
:100ED0004DF808EDFFF7F4FF0CBF012000205DF88E
:100EE00008FB00BF4DF808EDFFF7EAFF34BF012013
:100EF00000205DF808FB00BF4DF808EDFFF7E0FFAC
:100F000094BF012000205DF808FB00BF4DF808EDFC
:100F1000FFF7D2FF94BF012000205DF808FB00BF5F
:100F20004DF808EDFFF7C8FF34BF012000205DF841
:100F300008FB00BF4FEA4002B2F1FE4F0FD34FF063
:100F40009E03B3EB12620DD94FEA002343F0004336
:100F500010F0004F23FA02F018BF404270474FF0E4
:100F60000000704712F1610F01D1420205D110F06B
:100F7000004008BF6FF0004070474FF0000070471E
:100F800042000ED2B2F1FE4F0BD34FF09E03B3EBF3
:100F9000126209D44FEA002343F0004323FA02F01F
:100FA00070474FF00000704712F1610F01D142020B
:100FB00002D14FF0FF3070474FF00000704700BF84
:100FC0007BB972B90029BEBF00204FF0004106E096
:100FD00008BF00281CBF6FF000414FF0FF3000F049
:100FE000A9B9ADF1080C6DE904CE002909DB002B8D
:100FF0001ADB00F035F8DDF804E0DDE9022304B087
:101000007047404261EB4101002B1BDB00F028F8E8
:10101000DDF804E0DDE9022304B0404261EB410168
:10102000524263EB43037047524263EB430300F0C9
:1010300017F8DDF804E0DDE9022304B0404261EB7B
:1010400041017047524263EB430300F009F8DDF8B9
:1010500004E0DDE9022304B0524263EB430370472E
:101060002DE9F047089E0D4604468846002B4DD1D9
:101070008A42944668D9B2FA82F252B101FA02F376
:10108000C2F1200120FA01F10CFA02FC41EA030846
:1010900094404FEA1C41B8FBF1F71FFA8CFE01FBAC
:1010A000178807FB0EF0230C43EA084398420AD93D
:1010B0001CEB030307F1FF3580F01E81984240F2DC
:1010C0001B81023F63441B1AB3FBF1F001FB103399
:1010D00000FB0EFEA4B244EA0344A6450AD91CEB69
:1010E000040400F1FF3380F00981A64540F2068137
:1010F000644402380021A4EB0E0440EA07401EB10C
:101100000023D440C6E90043BDE8F0878B4208D9EC
:10111000002E00F0EE800021C6E900050846BDE87B
:10112000F087B3FA83F100294AD1AB4202D382425D
:1011300000F2FC80841A65EB030301209846002E20
:10114000E2D0C6E90048DFE702B9FFDEB2FA82F278
:10115000002A40F09180A1EB0C0001214FEA1C47CE
:101160001FFA8CFEB0FBF7F307FB1300250C45EAD2
:1011700000450EFB03F0A84208D91CEB050503F15E
:10118000FF3802D2A84200F2CE8043462D1AB5FBAA
:10119000F7F007FB10550EFB00FEA4B244EA05442D
:1011A000A64508D91CEB040400F1FF3502D2A64580
:1011B00000F2B6802846A4EB0E0440EA03409EE706
:1011C000C1F120078B4022FA07FC4CEA030C25FAF8
:1011D00007FA4FEA1C49BAFBF9F820FA07F309FBB2
:1011E00018AA8D401FFA8CFE1D4300FA01F308FB7C
:1011F0000EF02C0C44EA0A44A04202FA01F20BD988
:101200001CEB040408F1FF3A80F08880A04240F211
:101210008580A8F102086444241AB4FBF9F009FBA4
:10122000104400FB0EFEADB245EA0444A64508D9C1
:101230001CEB040400F1FF356CD2A6456AD90238D4
:10124000644440EA0840A0FB0295A4EB0E04AC42C3
:10125000C846AE4656D353D0002E69D0B3EB080231
:1012600064EB0E0422FA01F304FA07F71F43CC40A3
:10127000C6E90074002147E70CFA02FCC2F1200124
:1012800025FA01F34FEA1C4720FA01F195400D437E
:10129000B3FBF7F107FB11331FFA8CFE280C40EA71
:1012A000034001FB0EF3834204FA02F408D91CEB5D
:1012B000000001F1FF382FD283422DD9023960445A
:1012C000C01AB0FBF7F307FB1300ADB245EA0045C7
:1012D00003FB0EF0A84208D91CEB050503F1FF380B
:1012E00016D2A84214D9023B6544281A43EA0141A8
:1012F00038E73146304607E72F46E4E61846F9E678
:101300004B45A9D2B9EB020865EB0C0E0138A3E7F7
:101310004346EAE7284694E74146D1E7D0467BE7D3
:101320006444023847E7023B65442FE7084606E776
:101330003146E9E6704700BF844641EA000313F0F6
:10134000030349D1403A23D30B6803604B684360E1
:101350008B688360CB68C3600B6903614B69436131
:101360008B698361CB69C3610B6A03624B6A436219
:101370008B6A8362CB6AC3620B6B03634B6B436301
:101380008B6B8363CB6BC36340304031403ADBD21D
:1013900030320BD30B6803604B6843608B6883600B
:1013A000CB68C36010301031103AF3D20C3205D341
:1013B00051F8043B40F8043B043AF9D2043208D017
:1013C000D2071CBF11F8013B00F8013B01D30B8889
:1013D00003806046704700BF082A13D38B07B1D043
:1013E00010F00303AED0C3F10403D21ADB071CBF15
:1013F00011F8013B00F8013BA4D331F8023B20F87F
:10140000023B9FE7043AD9D3013A11F8013B00F8B7
:10141000013BF9D20B7803704B7843708B78837063
:10142000604670474FF0FF3C06E000BF4FF0010CF4
:1014300002E000BF4FF0010C4DF804CD4FEA410C23
:101440007FEA6C5C4FEA430C18BF7FEA6C5C1BD0F0
:1014500001B050EA410C0CBF52EA430C91EA030F71
:1014600002BF90EA020F0020704710F1000F91EACE
:10147000030F58BF994208BF90422CBFD8176FEA9C
:10148000E37040F0010070474FEA410C7FEA6C5C6A
:1014900002D150EA013C07D14FEA430C7FEA6C5C71
:1014A000D6D152EA033CD3D05DF8040B704700BF9D
:1014B0008446104662468C461946634600E000BFEB
:1014C00001B5FFF7B7FF002848BF10F1000F01BDBD
:1014D0004DF808EDFFF7F4FF0CBF012000205DF888
:1014E00008FB00BF4DF808EDFFF7EAFF34BF01200D
:1014F00000205DF808FB00BF4DF808EDFFF7E0FFA6
:1015000094BF012000205DF808FB00BF4DF808EDF6
:10151000FFF7CEFF94BF012000205DF808FB00BF5D
:101520004DF808EDFFF7C4FF34BF012000205DF83F
:1015300008FB00BF4FEA410C7FEA6C5C02D150EA25
:10154000013C0AD14FEA430C7FEA6C5C02D152EABB
:10155000033C02D14FF0000070474FF0010070478C
:101560004FEA410212F5001215D211D56FF47873CB
:10157000B3EB625212D94FEAC12343F0004343EA6E
:10158000505311F0004F23FA02F018BF4042704749
:101590004FF00000704750EA013005D111F00040D3
:1015A00008BF6FF0004070474FF00000704700BF69
:1015B00053B94AB9002908BF00281CBF4FF0FF31BA
:1015C0004FF0FF30FFF7B6BEADF1080C6DE904CE69
:1015D000FFF746FDDDF804E0DDE9022304B07047C3
:1015E000F0B589B000240494059406940794354B13
:1015F0009A6942F020029A619A6902F020020192EF
:10160000019A9A6942F004029A619A6902F004020E
:101610000292029A9A6942F008029A619B6903F069
:1016200008030393039B284E22464FF238013046AD
:1016300000F07EFC254F22464FF40041384600F072
:1016400077FC01224FF44071304600F071FC2023FA
:10165000049305940125069504A9384600F056FB2D
:101660004FF473430493059506940323079304A949
:10167000304600F04BFB4FF480530493144B05931A
:10168000069504A9384600F041FB4FF4004304934B
:1016900005950694079504A9384600F037FB3823D2
:1016A000049305950694079504A9304600F02EFB97
:1016B0002A460221282000F0BDFA282000F000FB75
:1016C00009B0F0BD00100240000C014000080140CC
:1016D0000000211072B6FEE700B591B0282200216B
:1016E00006A804F099FB002301930293039304934B
:1016F0000593012206924FF4803307930A92022247
:101700000D920E934FF4E0130F9306A800F03AFCED
:1017100080B90F23019302210291002303934FF418
:1017200080620492059301A800F06CFE20B911B00C
:101730005DF804FBFFF7CEFFFFF7CCFF08B500F024
:1017400043FAFFF7C9FFFFF74BFF00F0A9F900F0DC
:10175000A7F800F0DDF802F0DBF8022004F0C4FA8C
:10176000012004F0C1FA01F0FDFC01F01CFE01F0C3
:101770002FFE282000F096FAFEE7000000B583B0A7
:101780000F4B9A6942F001029A619A6902F00102D4
:101790000092009ADA6942F08052DA61DB6903F064
:1017A00080530193019B052000F032FA054A5368EB
:1017B00023F0E06343F00073536003B05DF804FB73
:1017C0000010024000000140FEE7FEE7FEE7FEE7F2
:1017D000FEE770477047704708B500F007FA08BD8C
:1017E00008B54FF4805000F0A9FB08BD01207047F8
:1017F00008B504F0B3FA162303604FF0FF3008BDBC
:1018000008B54FF0FF31FFF7F3FFFEE770B50C4668
:101810001646002506E0AFF30080214601F8010BD3
:1018200001350C46B542F6DB304670BD70B50C464E
:101830001646002504E014F8010BAFF300800135D3
:10184000B542F8DB304670BD08B503460B4A126856
:1018500042B10A4A106803446A46934206D8074ACE
:10186000136008BD054A06491160F2E704F076FAF4
:101870000C2303604FF0FF30F3E700BF4C0A002059
:10188000201000204FF0FF3070474FF400534B60A2
:10189000002070470120704700207047704700000B
:1018A00000B58DB02422002103A804F0B5FA00236E
:1018B0000193029315484FF08042026043608360B9
:1018C0004FF6FF72C2600361836103230393012219
:1018D00005920A23079309920B9303A900F032FFA4
:1018E00070B900230193029301A9084801F004F99B
:1018F00048B93C21054801F099F80DB05DF804FBAA
:10190000FFF7E8FEEDE7FFF7E5FEF2E7980A0020B3
:1019100000B58DB02422002103A804F07DFA002335
:10192000019302931548164A0260436083604FF6A4
:10193000FF72C26003618361032303930122059256
:101940000A23079309920B9303A900F0FBFE70B9D9
:1019500000230193029301A9084801F0CDF848B98A
:101960003C21064801F062F80DB05DF804FBFFF77A
:10197000B1FEEDE7FFF7AEFEF2E700BFE00A0020A0
:10198000000800400268094B9A4200D0704782B0BC
:1019900003F564439A6942F400629A619B6903F417
:1019A00000630193019B02B0704700BF002C01400F
:1019B00000B589B000230493059306930793036849
:1019C000B3F1804F05D01D4A93421DD009B05DF898
:1019D00004FB03F50433DA6942F00102DA61DA69E3
:1019E00002F001020092009A9A6942F004029A61A0
:1019F0009B6903F004030193019B0323049304A94F
:101A00000F4800F083F9E1E70E4BDA6942F0040277
:101A1000DA61DA6902F004020292029A9A6942F0EB
:101A200008029A619B6903F008030393039BC02398
:101A3000049304A9044800F069F9C7E700080040CE
:101A40000008014000100240000C014000B587B0C2
:101A50000023029303930493059302680E4B9A426A
:101A600002D007B05DF804FB03F564439A6942F0C5
:101A700004029A619B6903F004030193019B4FF4F4
:101A800010630293022303930323059302A90348DF
:101A900000F03CF9E5E700BF002C014000080140E0
:101AA00010B592B000241094119409940A940B94E8
:101AB0000C940D940E940F942022214601A804F05A
:101AC000ABF92C482C4B03604460846041F61F4303
:101AD000C360046144618023836100F007FE002835
:101AE00039D100231093119310A9224801F004F872
:101AF000002833D16023099300220A920B920C92A2
:101B00000D920E920F9209A91A4800F0A9FE40BB4F
:101B10000C2209A9174800F0A3FE28BB002301935B
:101B200002930393049305934FF400520692089393
:101B300001A9104801F016F8C8B90E4C0021204642
:101B400000F006FF0C21204600F002FF2046FFF7C0
:101B50007DFF12B010BDFFF7BDFDC2E7FFF7BAFD74
:101B6000C8E7FFF7B7FDD3E7FFF7B4FDD6E7FFF708
:101B7000B1FDE2E7500A0020002C014010B50446F8
:101B80000E4B18784FF47A73B3FBF0F30C4A1068DD
:101B9000B0FBF3F000F0A6F868B90F2C01D90120D2
:101BA0000AE0002221464FF0FF3000F043F8054BD9
:101BB0001C60002000E0012010BD00BF08000020D4
:101BC000040000200C00002008B5074A136843F009
:101BD00010031360032000F01BF80020FFF7CEFF76
:101BE000FFF7CCFD002008BD00200240034A116829
:101BF000034B1B780B441360704700BF280B002079
:101C000008000020014B1868704700BF280B002017
:101C1000074AD36823F4E0631B041B0C000200F4A2
:101C2000E060034343F0BF6343F40033D360704785
:101C300000ED00E000B5194BDB68C3F30223C3F1EC
:101C4000070CBCF1040F28BF4FF0040C03F1040E85
:101C5000BEF1060F18D9033B4FF0FF3E0EFA0CFC05
:101C600021EA0C0199400EFA03F322EA0303194317
:101C700000280BDB0901C9B200F1604000F56140AA
:101C800080F800135DF804FB0023E5E700F00F0087
:101C90000901C9B2024B1954F4E700BF00ED00E09E
:101CA00014ED00E0002807DB00F01F0240090123CB
:101CB0009340024A42F82030704700BF00E100E044
:101CC00000280CDB00F01F02400901239340203064
:101CD000034A42F82030BFF34F8FBFF36F8F704736
:101CE00000E100E00138B0F1807F0BD24FF0E0233B
:101CF0005861054AF02182F82310002098610722DC
:101D00001A6170470120704700ED00E070B582B0A5
:101D10000024A446A6E0804DAA4210D007D97F4DEA
:101D2000AA420CD005F58035AA4208D013E0A5F5EB
:101D30008015AA4203D005F57025AA4207D18A680A
:101D4000002A58D0012A51D04361082403E0A5F5A8
:101D50008015AA42F3D0BEF1FF0F4ED80646BEF161
:101D6000FF0F4CD84FEA8C0233680F25954023EAC9
:101D7000050304FA02F2134333604B6813F0805FEB
:101D80006ED0674B9A6942F001029A619B6903F039
:101D900001030193019B4FEA9C02951C614B53F890
:101DA00025600CF003039D000F23AB4026EA0306D9
:101DB0005D4B984229D003F58063984200F08E80F5
:101DC00003F58063984200F08B8003F580639842AE
:101DD00019D004231AE0CC68BDE7CC680434BAE714
:101DE000CC680834B7E7CC680C34B4E70361082446
:101DF000B1E70024AFE70424ADE7061DAFE7ACF17F
:101E000008029200B0E7032300E00023AB40334315
:101E10000232444D45F822304B6813F4803F61D0C4
:101E2000424A136843EA0E0313604B6813F4003F01
:101E30005ED03E4A536843EA0E0353604B6813F486
:101E4000801F5BD0394A936843EA0E0393604B6866
:101E500013F4001F58D0354AD36843EA0E03D36009
:101E60000CF1010C0A6832FA0CF353D0012303FA87
:101E70000CF302EA030E33EA0202F1D14A68122A95
:101E80003FF649AF122A3FF666AF01A555F822F09A
:101E90003F1D0008D71D0008E11D0008F31D0008C4
:101EA000571D0008571D0008571D0008571D000842
:101EB000571D0008571D0008571D0008571D000832
:101EC000571D0008571D0008571D0008571D000822
:101ED000571D0008DB1D0008E71D0008012395E7DA
:101EE000022393E7114A136823EA0E0313609CE769
:101EF0000E4A536823EA0E0353609FE70B4A936828
:101F000023EA0E039360A2E7084AD36823EA0E038C
:101F1000D360A5E702B070BD0000221000003110B0
:101F20000010024000000140000801400004014090
:101F30000AB10161704709040161704708B5054B9A
:101F40005B69034200D108BD024B586101F096FC69
:101F5000F9E700BF0004014082B0084B1B68084A43
:101F6000A2FB03235B0A00FB03F3019300BF019B69
:101F70005A1E0192002BF9D102B0704704000020D4
:101F8000D34D6210002800F0F18170B582B0044694
:101F9000036813F0010F2CD0994B5B6803F00C031E
:101FA000042B1DD0964B5B6803F00C03082B12D05A
:101FB0006368B3F5803F41D0002B55D103F18043D6
:101FC00003F504331A6822F480321A601A6822F486
:101FD00080221A6037E08A4B5B6813F4803FE7D0B9
:101FE000874B1B6813F4003F03D06368002B00F09D
:101FF000BF81236813F0020F75D0814B5B6813F02B
:102000000C0F5FD07E4B5B6803F00C03082B54D0A1
:102010002369002B00F08A807A4B01221A60FFF7B7
:10202000F1FD0546764B1B6813F0020F75D1FFF7E3
:10203000E9FD401B0228F5D903209EE1704A136890
:1020400043F480331360636843B3FFF7DBFD054659
:102050006B4B1B6813F4003FCBD1FFF7D3FD401B44
:102060006428F5D9032088E1B3F5A02F09D0644B8B
:102070001A6822F480321A601A6822F480221A60E8
:10208000E1E703F18043A3F53C331A6842F4802270
:102090001A601A6842F480321A60D4E7FFF7B2FD82
:1020A0000546574B1B6813F4003FA2D0FFF7AAFD6B
:1020B000401B6428F5D903205FE1514B5B6813F4A2
:1020C000803FA5D14E4B1B6813F0020F03D023694C
:1020D000012B40F04F814A4A136823F0F8036169ED
:1020E00043EAC1031360236813F0080F33D0A369D8
:1020F000002B5CD0434B0122C3F88024FFF782FD04
:1021000005463F4B5B6A13F0020F21D1FFF77AFDC2
:10211000401B0228F5D903202FE1394A136823F028
:10212000F803616943EAC1031360DCE7354B002221
:102130001A60FFF767FD0546314B1B6813F0020F6D
:10214000D1D0FFF75FFD401B0228F5D9032014E131
:102150000120FFF701FF236813F0040F00F09680C1
:10216000274BDB6913F0805F34D1254BDA6942F0ED
:102170008052DA61DB6903F080530193019B0125F2
:10218000214B1B6813F4807F26D0E368012B3DD0E0
:10219000002B53D103F1804303F504331A6A22F074
:1021A00001021A621A6A22F004021A6233E0154B25
:1021B0000022C3F88024FFF725FD0546104B5B6A1B
:1021C00013F0020FC7D0FFF71DFD401B0228F5D901
:1021D0000320D2E00025D3E70B4A136843F4807351
:1021E0001360FFF70FFD0646074B1B6813F4807F53
:1021F000CBD1FFF707FD801B6428F5D90320BCE095
:102200000010024000004242007000405F4A136A22
:1022100043F001031362E36833B3FFF7F3FC0646B0
:102220005A4B1B6A13F0020F2FD1FFF7EBFC801BF8
:1022300041F288339842F3D903209EE0052B09D060
:10224000524B1A6A22F001021A621A6A22F0040240
:102250001A62E0E74D4B1A6A42F004021A621A6AE7
:1022600042F001021A62D6E7FFF7CCFC0646474B64
:102270001B6A13F0020F08D0FFF7C4FC801B41F269
:1022800088339842F3D9032077E0E5B9E369002B5E
:1022900072D03E4A526802F00C02082A56D0022B35
:1022A00017D03B4B00221A66FFF7ACFC0446374BB5
:1022B0001B6813F0007F47D0FFF7A4FC001B022827
:1022C000F5D9032059E0314AD36923F08053D36113
:1022D000DCE72F4B00221A66FFF794FC05462B4BD8
:1022E0001B6813F0007F06D0FFF78CFC401B022810
:1022F000F5D9032041E0236AB3F5803F1AD0234982
:102300004B6823F47413226A606A024313434B60E0
:102310001F4B01221A66FFF775FC04461B4B1B6816
:1023200013F0007F0ED1FFF76DFC001B0228F5D9DA
:10233000032022E0154A536823F40033A1680B43BD
:102340005360DCE7002018E0002016E0012B16D0D7
:102350000E4B5B6803F48031226A914211D103F481
:102360007013626A93420ED1002006E0012070478C
:10237000012002E0012000E0002002B070BD012039
:10238000FBE70120F9E70120F7E700BF001002405A
:102390000000424286B0174B0FCB0DF1180C0CE930
:1023A0000F0040F20123ADF80430134B5B6803F0DB
:1023B0000C02082A02D0114806B07047C3F38342CA
:1023C00018326A4412F8100C13F4803F0DD00A4BF7
:1023D0005B68C3F3404318336B4413F8143C074A5B
:1023E00002FB00F0B0FBF3F0E6E7054B03FB00F067
:1023F000E2E700BFA8C300080010024000127A0004
:1024000000093D00002800F0A08070B50D4604468C
:10241000524B1B6803F007038B420BD24F4A1368E1
:1024200023F007030B431360136803F007038B4289
:1024300040F08D80236813F0020F17D013F0040FC3
:1024400004D0474A536843F4E0635360236813F0B1
:10245000080F04D0424A536843F460535360404A23
:10246000536823F0F003A1680B435360236813F013
:10247000010F31D06368012B20D0022B25D0384AC0
:10248000126812F0020F64D035494A6822F0030244
:1024900013434B60FFF7B6FB0646314B5B6803F016
:1024A0000C036268B3EB820F16D0FFF7ABFB801B07
:1024B00041F288339842F0D9032045E0284A126857
:1024C00012F4003FE0D101203EE0254A126812F0EC
:1024D000007FD9D1012037E0204B1B6803F00703B0
:1024E000AB420AD91D4A136823F007032B4313603C
:1024F000136803F00703AB422DD1236813F0040FD8
:1025000006D0174A536823F4E063E1680B43536035
:10251000236813F0080F07D0114A536823F460535F
:10252000216943EAC1035360FFF734FF0C4B5B683A
:10253000C3F303130B4AD35CD8400B4B18600B4B0F
:102540001868FFF71BFB002070BD012070470120B9
:10255000FAE70120F8E70120F6E700BF002002407B
:102560000010024098C30008040000200C00002066
:1025700070B4036A23F001030362036A4668826948
:1025800022F073020C6844EA020523F002028B6811
:1025900013430D4CA04209D00B4CA0420DD0466015
:1025A00085614A684263036270BC704723F0080388
:1025B000CA68134323F00403EEE726F440764A6921
:1025C00032438E691643EAE7002C014030B4036AB7
:1025D00023F480730362036A4568C26922F07302C0
:1025E0000C68224323F400738C6843EA04230F4CE5
:1025F000A04209D00D4CA0420ED04560C2614A688D
:10260000C263036230BC704723F40063CC6843EAC2
:10261000042323F48063EDE725F440554C6945EA33
:1026200004158C6945EA0415E7E700BF002C01405A
:1026300030B4036A23F480530362036A4468C269B6
:1026400022F4E6420D6842EA052223F400538D6825
:1026500043EA0533074DA84206D04460C2614A6888
:102660000264036230BC704724F480444D6944EA3C
:102670008514F2E7002C014003681B4A90420AD0FF
:10268000B0F1804F07D0A2F59432904203D002F50A
:102690008062904203D123F070034A681343124AC8
:1026A00090420AD0B0F1804F07D0A2F59432904208
:1026B00003D002F58062904203D123F44073CA68CC
:1026C000134323F080034A69134303608B68C3629A
:1026D0000B688362044B984202D001234361704728
:1026E0000B690363F9E700BF002C014040B310B54C
:1026F000044690F83D30F3B1022384F83D30214682
:1027000051F8040BFFF7B8FF012384F8463084F832
:102710003E3084F83F3084F8403084F8413084F80B
:10272000423084F8433084F8443084F8453084F8EB
:102730003D30002010BD80F83C30FFF723F9DBE787
:1027400001207047002857D070B50D46044690F818
:102750003D30002B4BD0022384F83D302268936833
:1027600023F4804323F007039360214651F8040BC0
:10277000FFF782FF21688A688B690E6A2868104318
:1027800023F4407C2CF0030CAA68AB6942EA0323D3
:1027900043EA0C0323F47C4323F0FC03EA69D5F8F5
:1027A0000CC04CEA022C4CEA030C2A6A13032A6977
:1027B00043EA021343EA0C0326F022066A686D69B5
:1027C00042EA05123243886021688B6123681A62ED
:1027D000012384F8463084F83E3084F83F3084F892
:1027E000423084F8433084F83D30002070BD80F8DA
:1027F0003C30FFF7DDF8AEE70120704730B4036AE4
:1028000023F010030362036A4468826922F4E642FB
:102810000D6842EA052223F020038D6843EA051380
:102820000E4DA84209D00D4DA8420ED044608261E1
:102830004A688263036230BC704723F08003CD682E
:1028400043EA051323F04003EDE724F440644D69A7
:1028500044EA85048D6944EA8504E7E7002C0140D9
:1028600038B590F83C30012B60D004460D4601236A
:1028700080F83C300C2A1AD8DFE802F00719191941
:102880001D1919193119191944000068FFF770FE54
:102890002268936943F0080393612268936923F0E7
:1028A000040393612268936929690B4393610020B3
:1028B00084F83C0038BD0068FFF7A0FF22689369E8
:1028C00043F4006393612268936923F48063936106
:1028D00022689369296943EA01239361E7E7006865
:1028E000FFF774FE2268D36943F00803D3612268BE
:1028F000D36923F00403D3612268D36929690B43A8
:10290000D361D4E70068FFF793FE2268D36943F4EC
:102910000063D3612268D36923F48063D3612268A2
:10292000D369296943EA0123D361C0E70220C1E7E3
:1029300001F01F01012303FA01FC036A23EA0C03DF
:102940000362036A02FA01F10B430362704700005D
:1029500010B50446084651BB94F83E30DBB2013B4B
:1029600018BF0123002B5BD1002839D1022384F842
:102970003E30012201462068FFF7DAFF23682A4A29
:1029800093423DD02368284A93423ED0B3F1804F12
:102990003BD0A2F59432934237D002F58062934245
:1029A00033D01A6842F001021A60002039E004298D
:1029B00008D008290DD094F84130DBB2013B18BF94
:1029C0000123CFE794F83F30DBB2013B18BF01236E
:1029D000C8E794F84030DBB2013B18BF0123C1E7E0
:1029E000042805D0082807D0022384F84130C0E726
:1029F000022384F83F30BCE7022384F84030B8E774
:102A00005A6C42F400425A64BCE79A6802F007022A
:102A1000062A07D01A6842F001021A60002000E07E
:102A2000012010BD0020FCE7002C014038B5044611
:102A300090F83E00C0B294F83F3094F84220D2B2F1
:102A400094F843C00D46B1B9012849D1012A48D1B3
:102A5000022384F83E3084F842307DB3042D39D00F
:102A6000012200212068FFF763FF01220421206872
:102A7000FFF75EFF27E0DBB25FFA8CFC042912D07F
:102A8000012833D1012B2CD1012A31D1BCF1010F06
:102A900030D1022384F83E3084F83F3084F842304D
:102AA00084F84330D9E7012B1CD1BCF1010F1BD1B5
:102AB000022384F83F3084F84330CEE7012200211E
:102AC0002068FFF735FF2268136843F001031360A5
:102AD000002006E0012204212068FFF729FFF2E729
:102AE000012038BD0120FCE71846FAE70120F8E78D
:102AF0001846F6E71046F4E790F83C30012B2CD04E
:102B000010B4012380F83C30022380F83D30036884
:102B10005A689C6822F0700C0A6842EA0C025A60FB
:102B200003680F4A93420AD0B3F1804F07D0A2F551
:102B30009432934203D002F58062934204D124F090
:102B400080044A6814439C60012380F83D300023D0
:102B500080F83C30184610BC70470220704700BF18
:102B6000002C014090F83C30012B22D0012380F84A
:102B70003C30CB6823F440738A68134323F48063AA
:102B80004A68134323F400630A68134323F4805311
:102B90000A69134323F400534A69134323F480431F
:102BA000CA69134302685364002380F83C30184616
:102BB0007047022070470000144B5A6822F0F00260
:102BC0005A605A6842F030025A60114B0122C3F831
:102BD000A421D3F824310BB90020704710B50C4C58
:102BE0001046C4F8A02100F0A5FE0023C4F8A431CB
:102BF000D4F824310BB1002010BD012000F09AFE62
:102C00000022C4F8A0210120F6E700BF000C01401B
:102C10000080214210B50D4B5A6822F0F0025A6034
:102C20005A6842F030025A60094C0023C4F8A031BF
:102C3000C4F8A431012000F07DFE0120C4F8A001F9
:102C4000C4F8A40100F076FE10BD00BF000C0140E6
:102C50000080214238B5164B5A6822F0F0025A60C3
:102C60005A6842F080025A60124D0124C5F8A4410E
:102C7000204600F05FFEC5F8A041204600F05AFE55
:102C8000002402E0012000F055FE0A4BD3F8243165
:102C90003BB10134E4B2322CF4D9FFF7BBFF002082
:102CA00004E0044B0022C3F8A021012038BD00BF7E
:102CB000000C01400080214238B50D4C0025C4F8BD
:102CC000A0510C4B5A6822F0F0025A605A6842F048
:102CD00030025A60C4F8A451012000F02BFE0120FC
:102CE000C4F8A00100F026FEC4F8A05138BD00BF12
:102CF00000802142000C014070B50D4C0026C4F844
:102D0000A0610C4B5A6822F0F0025A605A6842F0F7
:102D100030025A600125C4F8A451284600F00AFE8A
:102D2000C4F8A051284600F005FEC4F8A06170BDAB
:102D300000802142000C0140F8B50546134B5A684B
:102D400022F0F0025A605A6842F030025A600024C1
:102D50000F4BC3F8A04116E0EB090D4FC7F8A431A3
:102D60006D00EDB2012000F0E5FD0126C7F8A0617D
:102D7000304600F0DFFD0023C7F8A031304600F0F8
:102D8000D9FD3444E4B2072CE6D9F8BD000C01406B
:102D900000802142F8B504460F4615461E46FFF74F
:102DA0000BFF10B901273846F8BD600000F0FE00A7
:102DB000FFF7C2FFFFF74EFF80B13846FFF7BCFFB9
:102DC000FFF748FF0024A5420FDD305DFFF7B4FF99
:102DD000FFF740FF074628B10134F4E7FFF71AFF79
:102DE0000127E0E7FFF716FFDDE7FFF713FF0027F6
:102DF000D9E70000F8B50746164B5A6822F0F002F2
:102E00005A605A6842F080025A600024254604E065
:102E1000022000F08FFD0135EDB2072D12D80E4EC5
:102E20000023C6F8A031022000F084FD0123C6F87B
:102E3000A0319C40E4B2D6F82431002BE8D0013414
:102E4000E4B2E5E71FB1FFF737FF2046F8BDFFF713
:102E500053FFFAE7000C014000802142F8B5054617
:102E60000F4614461E46FFF7A7FE08B90120F8BD1D
:102E70006D00EDB22846FFF75FFFFFF7EBFE68B18C
:102E80003846FFF759FFFFF7E5FEFFF795FE681C90
:102E9000C0B2FFF751FFFFF7DDFE0AE0FFF7BAFE11
:102EA0000120E4E70020FFF7A5FF30700136013C68
:102EB000E4B234B1012CF5D00120FFF79BFF307054
:102EC000F4E7FFF7A7FE0020D1E738B504460D462A
:102ED000FFF772FE2046FFF72FFFFFF7BBFE2846E5
:102EE000FFF72AFFFFF7B6FEFFF766FE601CC0B2D1
:102EF000FFF722FFFFF7AEFE0020FFF77BFF04463F
:102F0000FFF788FE204638BDF8B507460C46154643
:102F10001E46FFF751FE3846FFF70EFFFFF79AFEF9
:102F20002046FFF709FFFFF795FE002406E0305D1D
:102F3000FFF702FFFFF78EFE0134E4B2AC42F6D396
:102F4000FFF768FE0120F8BD10B51446FFF7BDFF7E
:102F50002070012010BD00B583B08DF807200DF161
:102F600007030122FFF7D0FF03B05DF804FBF0B5C3
:102F700083B006460F4614461D460DF10702FFF7C3
:102F8000E3FF08B903B0F0BD621CFF2101FA02F2B1
:102F9000C4F108032B44013B41FA03F31A43C5F182
:102FA00008059DF8201001FA05F5C4F10703ECB2FD
:102FB0001C41E4B29DF807301A408DF807202243E7
:102FC0008DF8072039463046FFF7C5FFDAE7F0B540
:102FD00083B004460D4616461F460DF10702FFF763
:102FE000B3FF77B1012202FA06F69DF807203243BB
:102FF000D2B28DF8072029462046FFF7ACFF03B078
:10300000F0BD012202FA06F69DF8072022EA060228
:10301000EFE7000003280CD0042810D0022801D0CC
:10302000002070474FF08043586A00B200225A6275
:103030007047064B586A00B200225A627047044B30
:10304000586A00B200225A62704700BF0004004074
:10305000000800400B4B1B781BB10B4BD3F814310D
:1030600033B1094BD3F81431012B06D0002070473F
:10307000044B00221A7001207047024B01221A7083
:1030800000207047100000200000214229B1144B9D
:103090000122C3F8BC21002310E0114B0022C3F829
:1030A000BC21F8E70F4A0021C2F890110D4A012116
:1030B000C2F894118840C0B20B44DBB2072B0AD887
:1030C000084A0021C2F8941110F0800FEAD00121C3
:1030D000C2F89011EAE7024B0122C3F8BC21704705
:1030E000000021420080214238B500250DE0104B40
:1030F00003EBC4030121585DFFF7C8FF0134E4B2BC
:1031000014F0800FF3D00135EDB2072D0FD8A5F1E3
:1031100050000021C0B2FFF7B9FF00210846FFF7B9
:10312000B5FF00211020FFF7B1FF0024E8E738BD0C
:103130002C0B002008B500200BE0094A02EBC3026B
:10314000002111540133DBB213F0800FF5D00130B0
:10315000C0B2072801D80023F6E7FFF7C5FF08BD76
:103160002C0B002038B5384D0024C5F88C41642064
:1031700000F000FC0123C5F88C312146AE20FFF79A
:1031800085FF2146D520FFF781FF21465020FFF71C
:103190007DFF2146A820FFF779FF21463F20FFF75A
:1031A00075FF2146D320FFF771FF21462046FFF728
:1031B0006DFF21464020FFF769FF21468D20FFF774
:1031C00065FF21461420FFF761FF21462020FFF70D
:1031D0005DFF21460220FFF759FF2146A120FFF79E
:1031E00055FF2146C020FFF751FF2146DA20FFF7A7
:1031F0004DFF21461220FFF749FF21468120FFF7AE
:1032000045FF2146EF20FFF741FF2146D920FFF778
:103210003DFF2146F120FFF739FF2146DB20FFF774
:1032200035FF21463020FFF731FF2146A420FFF76C
:103230002DFF2146A620FFF729FF2146AF20FFF7EB
:1032400025FFFFF777FF38BD0080214290F900305D
:10325000002B01DD002070470FDB90F90130002BBF
:1032600001DD012070470ADB90F90230002B08DCF9
:1032700001DB0720704706207047042070470520B7
:1032800070470220704738B50546FFF7DFFF044658
:10329000E81CFFF7DBFF44EAC00424B2A81DFFF7D7
:1032A000D5FF44EA801080B238BD10B588B002A9BD
:1032B00005A801F0B9FF072801D008B010BD01A88A
:1032C00001F016FB019C0598FDF71AFC2146FDF75D
:1032D0006BFCFDF72FFE05900698FDF711FC2146CB
:1032E000FDF762FCFDF726FE06900798FDF708FC47
:1032F0002146FDF759FCFDF71DFE079005A802F0D9
:10330000C7F80DF1020001F019FBBDF80220029B85
:1033100002FB03F30293039B02FB03F30393049B5F
:1033200002FB03F3049302A802F03AF9C5E700B5E3
:1033300083B00090032302226B21D020FFF717FEF9
:1033400003B05DF804FB00B583B0009002230422B3
:103350001B21D020FFF70BFE03B05DF804FB00B586
:1033600083B00090022304221C21D020FFF7FFFD30
:1033700003B05DF804FB08B5034606226B21D0209C
:10338000FFF725FE08BD08B5034605226A21D020B7
:10339000FFF71DFE08BD08B5034601223721D020E6
:1033A000FFF715FE08BD08B50220FFF7C0FF032098
:1033B000FFF7C9FF0020FFF7D2FF0020FFF7DBFF78
:1033C0000020FFF7E0FF0020FFF7E5FF08BD000049
:1033D00000B583B000238DF8043001AB01227521C4
:1033E0006820FFF73BFD9DF80430682B05D101F004
:1033F00027FD78B103B05DF804FBBFF34F8F14498C
:10340000CA6802F4E062134B1343CB60BFF34F8FE3
:1034100000BFFDE7782001F09FFC782001F0BCFAA6
:10342000C82001F047FC01F081FF0B48FFF72BFF9C
:1034300001F088FF40F2731002F04AFBC82002F04E
:1034400029F9FFF732FF012001F0A4FED2E700BF07
:1034500000ED00E00400FA051400002038B50D4628
:1034600001460020FDF796FA044629460020FDF7A4
:1034700091FA054607492046FDF796FB04460649A2
:103480002846FDF791FB01462046FDF783FAFDF73C
:1034900051FD38BD000096C3713D8A3F034610467A
:1034A0008B4200DC1946814200DB08467047000071
:1034B00008B5FFF7CFFD012800D008BD034A1378F7
:1034C000B3FA83F35B091370F7E700BF0000002035
:1034D00010B504460D49FDF705FD50B90C492046CD
:1034E000FDF71EFD28B90B4B1B78012B01D00020E6
:1034F0000AE0094B0022C3F8B821C3F8BC21C3F885
:10350000B421C3F8B021012010BD00BF000020C2CB
:103510000000204200000020008021420000000046
:103520002DE9704308444042FDF7EAFA0546324B64
:103530001860324E3068FCF76FFF2BA3D3E90023ED
:10354000FCF7C2FFFDF7D2F9044630602846FCF7CD
:1035500063FF27A3D3E90023FCF7B6FF8046894623
:103560002046FCF759FF42464B46FCF7F7FDFDF7B6
:10357000BDF904463060224D2968FDF70DFA286038
:103580002049FDF7CDFC08B11E4A2A601E491C4B9C
:103590001868FDF7A7FC10B1194B1B4A1A6004F11B
:1035A00000401A49FDF700FB04461949144B1868FE
:1035B000FDF7FAFA01462046FDF7ECF9154B1860C5
:1035C000154B1868FFF784FF012803D0134B1B78B5
:1035D000012B02D10A4B00221A600E4B1868FDF72E
:1035E000A9FCBDE8708300BF9A9999999999E93F20
:1035F0009A9999999999C93F380F00203C0F00205A
:10360000340F002000401C4600401CC60000204330
:10361000CDCC4C3F440F00203C0A0020000000208D
:103620002DE9F8434321D020FFF74FFC0402442149
:10363000D020FFF74AFC2044FDF762FA04464521FA
:10364000D020FFF742FC05024621D020FFF73DFCC9
:103650002844FDF755FA05464721D020FFF735FCF1
:103660004821D020FFF731FC3B21D020FFF72DFC73
:1036700006023C21D020FFF728FC3044FDF740FA39
:1036800006463D21D020FFF720FC07023E21D02036
:10369000FFF71BFC3844FDF733FA07463F21D020E3
:1036A000FFF713FC4FEA00284021D020FFF70DFC64
:1036B0004044FDF725FA80464FF08E412046FDF745
:1036C0002FFC28B14FF08F412046FDF763F90446E7
:1036D0004FF08E412846FDF723FC28B14FF08F4173
:1036E0002846FDF757F905464FF08E413046FDF765
:1036F00017FC28B14FF08F413046FDF74BF90646D5
:103700004FF08E413846FDF70BFC28B14FF08F414A
:103710003846FDF73FF907464FF08E414046FDF72A
:10372000FFFB28B14FF08F414046FDF733F980464B
:1037300004F10042304B1A604046FCF76DFE8046B3
:1037400089463846FCF768FE42464B4608F0B4FB13
:1037500000222A4BFCF7B8FE23A3D3E90023FCF791
:10376000DDFFFDF7C3F807463046FCF755FE42463D
:103770004B4608F0A1FB0022204BFCF7A5FE1AA344
:10378000D3E90023FCF7CAFFFDF7B0F80646204650
:10379000FCF742FE16A3D3E90023FCF7BFFFFDF7B9
:1037A000A5F880462846FCF737FE11A3D3E900238D
:1037B000FCF7B4FFFDF79AF804464146384600F09E
:1037C000F9F800F100400E4D28602146304600F027
:1037D000CFF900F100400B4B18602A680A4B1A60C1
:1037E000BDE8F883AFF30080F1D4C853FB21094052
:1037F0006666666666663040480A0020008066405D
:103800002C0F0020300F00203C0A0020002800DB95
:1038100070474042FCE7000010B50C46002819DD57
:10382000144B0122C3F8B4210022C3F8B021FFF7E2
:10383000EDFF114B1864002C14DD0E4B0122C3F870
:10384000BC210022C3F8B8212046FFF7DFFF0A4B56
:10385000586310BD074B0022C3F8B4210122C3F8FE
:10386000B021E4E7034B0022C3F8BC210122C3F8D6
:10387000B821E9E700802142002C0140B0F5805FCB
:1038800001D00020704738B51B4C2378B3FA83F37E
:103890005B092370FFF7C4FE0220FFF7BBFB404229
:1038A000164B18600420FFF7B5FB4042144B18601C
:1038B0002378012B19D0FFF7FBFD124D124B19682D
:1038C0002868FFF7CBFD04460D4B19680B4B1868B1
:1038D000FFF726FE0D4A41F6F4212044FFF7DEFDF6
:1038E00004462868FFF7F4FD08B1002038BD2146E2
:1038F0002046FFF791FFF8E7400F0020400A002024
:10390000440A00203C0A0020480A00200CE5FFFF82
:103910004FF0E022136923F004031361034B0922E3
:103920001A70034B42F228321A8070474A0F002067
:10393000480F00200E4B1B7803FB00F04FF0E023F4
:10394000586100229A611A6942F001021A614FF02F
:10395000E0231B6903F00113012BF8D04FF0E023A3
:103960001A6922F001021A6100229A61704700BFB1
:103970004A0F00200E4B1B8803FB00F04FF0E023A2
:10398000586100229A611A6942F001021A614FF0EF
:10399000E0231B6903F00113012BF8D04FF0E02363
:1039A0001A6922F001021A6100229A61704700BF71
:1039B000480F00202DE9F04F85B002900C465C4B7B
:1039C0001A680192114603942046FCF7E3FF594B15
:1039D0001F683946FDF7E8F8574C2168FCF7DCFF13
:1039E00000902060554C666831465548FCF7D2FF80
:1039F000D4F808904946FCF7CDFF0146514B1860BA
:103A0000D4F80CA00AF10048C3F80480C3F8088079
:103A1000DFF834B1C3F80CB03846FDF7C5F82168BB
:103A2000FCF7BAFF0546206041463846FDF7BCF872
:103A3000804601463046FCF7AFFF064660604146CF
:103A40004846FCF7A9FF8146A06059463846FDF775
:103A5000ABF801465046FCF79FFF8346E0600099B3
:103A60000298FCF797FF8246384B1860384B1D6070
:103A7000384BC3F800904FF07C512846FCF78CFF80
:103A80000746354B186001462846FDF741F9804648
:103A9000324B186039464846FDF73AF90746304B35
:103AA0001860304B1D60304B1E6041462846FDF7C4
:103AB0007BF801462846FCF76DFF20604146304602
:103AC000FDF772F801463046FCF764FF6060394646
:103AD0002846FDF769F801464846FCF75BFFA06001
:103AE00039463046FDF760F801465846FCF752FF6C
:103AF000E06041465046FDF757F801460098FCF754
:103B00004BFF04460C4B186039465046FDF74CF805
:103B100001460198FCF740FF0146054B18600398E9
:103B2000FCF738FF114B1860204605B0BDE8F08F58
:103B3000A00F002040000020A80F0020300000202F
:103B40006F12833A7C0F0020A69B443B4C0F002051
:103B50006C0F0020740F0020540F00205C0F002019
:103B6000640F0020B40F0020C00F0020B00F002011
:103B70002DE9F04F85B002900C465C4B1A6801921B
:103B8000114603942046FCF705FF594B1F68394640
:103B9000FDF70AF8574C2168FCF7FEFE0090206004
:103BA000554C666831465548FCF7F4FED4F8089049
:103BB0004946FCF7EFFE0146514B1860D4F80CA0C3
:103BC0000AF10048C3F80480C3F80880DFF834B174
:103BD000C3F80CB03846FCF7E7FF2168FCF7DCFEC1
:103BE0000546206041463846FCF7DEFF8046014628
:103BF0003046FCF7D1FE0646606041464846FCF779
:103C0000CBFE8146A06059463846FCF7CDFF014601
:103C10005046FCF7C1FE8346E06000990298FCF72D
:103C2000B9FE8246384B1860384B1D60384BC3F8DC
:103C300000904FF07C512846FCF7AEFE0746354B0E
:103C4000186001462846FDF763F88046324B18603D
:103C500039464846FDF75CF80746304B1860304B54
:103C60001D60304B1E6041462846FCF79DFF014613
:103C70002846FCF78FFE206041463046FCF794FF53
:103C800001463046FCF786FE606039462846FCF760
:103C90008BFF01464846FCF77DFEA0603946304662
:103CA000FCF782FF01465846FCF774FEE06041468F
:103CB0005046FCF779FF01460098FCF76DFE04467C
:103CC0000C4B186039465046FCF76EFF01460198D0
:103CD000FCF762FE0146054B18600398FCF75AFE9C
:103CE000114B1860204605B0BDE8F08F9C0F0020F6
:103CF00040000020A40F0020200000206F12833A13
:103D00008C0F0020A69B443B500F0020700F00201A
:103D1000780F0020580F0020600F0020680F00204F
:103D2000B80F0020BC0F0020AC0F00202DE9F0419F
:103D300082B007462C4B586801AB04220D21007855
:103D4000FFF78CF8002849D180469DF80420D21056
:103D500002F01C029DF80710C1F301131A438DF8FD
:103D600000209DF80520D21002F01C02C1F381034F
:103D70001A438DF801209DF80630DB1003F01C0378
:103D800001F003010B438DF80230002418E007EB2B
:103D90008405164B47F8243004E015492868FCF7E1
:103DA00003FF286006F108030DEB030212F8083C3C
:103DB000013BDBB202F8083C002BEED10134E4B247
:103DC000022C0DD8264604F108036B4413F8083C76
:103DD000002BDCD1002347F82430EFE74FF0070831
:103DE000404602B0BDE8F081440000207B14AE3EA6
:103DF0001D5A843F2DE9F04385B08146884601A8CD
:103E0000FFF794FF00273C460DE021493046FDF7BF
:103E100069F820B91F493046FDF782F810B1012337
:103E2000A3401F430134022C2EDCA50059F82400C6
:103E300058F82430C01A0028B8BF4042FCF760FE92
:103E40004FF05E51FCF7B0FE064605F110030DEB96
:103E5000030555F80C5C00212846FDF739F80028C9
:103E6000D3D129463046FCF753FF4FF07E51FCF783
:103E700091FD20F000400849FDF752F80028D1D00C
:103E80000123A3401F43CDE7384605B0BDE8F083CA
:103E90009A99993E3333733F295C0F3E2DE9F041E7
:103EA00082B006460F46394B586801AB03220D21FC
:103EB0000078FEF7D3FF002861D104469DF8043056
:103EC00003F01F038DF804309DF8053003F01F0345
:103ED0008DF805309DF8063003F01F038DF806308D
:103EE000804628E02A49FCF75FFE04F108030DEB49
:103EF000030212F8043C013BDBB202F8043C002B45
:103F0000F0D101462846FCF703FF4FF07E51FCF745
:103F100041FD20F000401F49FDF702F850B1012398
:103F2000A34048EA030805E01B48DEE70123A3405D
:103F300048EA03080134022C23DC56F8240057F821
:103F40002430C01A0028B8BF4042FCF7D9FD4FF01A
:103F50005E51FCF729FE054604F108036B4413F893
:103F6000043C002BE0D10D49FCF7BCFF0028DDD15B
:103F70000B492846FCF7D4FF0028DBD0D6E74FF0EA
:103F80000708404602B0BDE8F08100BF44000020B1
:103F900054E3853F295C0F3E0000C84100002041EA
:103FA0000000D24200B583B0234B93F82430CBB14C
:103FB000A0B102238DF807301F4B586819680DF126
:103FC00007030122C97B0078FEF7E4FE48BB9DF899
:103FD0000720194B5A7403B05DF804FB00238DF8D9
:103FE0000730E9E7144B9B7AF3B110B1124B5B7CBD
:103FF000EBB990B101238DF807300F4B5868196861
:104000000DF107030122C97B0078FEF7C3FE80B9DA
:104010009DF80720084B5A74DDE700238DF8073020
:10402000EBE74FF0FF30D6E74FF0FF30D3E700204B
:10403000D1E74FF0FF30CEE7440000202DE9F041FA
:1040400088B005460C46164601238DF8143000232F
:104050008DF81530844B5868196805AB0222897CAD
:104060000078FEF797FE002840F0CD81C820FFF7CA
:1040700081FC00238DF814307B4B5868196805AB20
:104080000122C97B0078FEF785FE002840F0BE8142
:10409000754B5868196805AB012249790078FEF71D
:1040A00079FE002840F0B5816F4B5868196805AB60
:1040B0000122897C0078FEF76DFE002840F0AC817B
:1040C000694B5868196805AB0122C97D0078FEF775
:1040D00061FE002840F0A381634B5868196805AB66
:1040E000012209790078FEF755FE002840F09A81F8
:1040F0000C238DF814305C4B5868196805AB01220D
:1041000009790078FEF746FE002840F08E810F20E6
:10411000FFF730FC544B9A6A527A8DF81420586895
:10412000196805AB012289780078FEF733FE002874
:1041300040F07E814C4B9A6A127A8DF814205868B0
:10414000196805AB012249780078FEF723FE0028A4
:1041500040F07181002E79D0434B9B6A9B7A63F0CB
:104160001F038DF81430404B5868196805AB0122C5
:1041700089790078FEF70EFE002840F05F81002E5E
:104180006AD0394B9B6ADB7A63F01F038DF81430D9
:10419000354B5868196805AB0122C9790078FEF7DC
:1041A000F9FD002840F04D81002E59D140238DF8B3
:1041B00014302D4B5868196805AB01220979007835
:1041C000FEF7E8FD002840F03F8178238DF8143099
:1041D000254B5868196805AB012249790078FEF72C
:1041E000D9FD002840F033813220FFF7C3FB0023C4
:1041F0008DF814301C4B5868196805AB01224979B9
:104200000078FEF7C7FD002840F02481164B58685F
:10421000196805AB0222897A0078FEF71FFE8046F6
:10422000002840F01A819DF814309DF8157047EA77
:1042300003270E4BA3FB0737C7F3C7070026AE6063
:104240006E602E60A660666026605BE0064B9B6A2F
:104250009B7A8DF8143086E718238DF8143097E791
:10426000C820FFF787FBA1E744000020ABAAAAAA59
:104270009DF814309DF8151041EA032109B2ADF8FC
:1042800004109DF816309DF8172042EA032212B25E
:10429000ADF806209DF818009DF8193043EA002378
:1042A0001BB2ADF8083020680144216061680A44FF
:1042B0006260A2681344A3609DF81A309DF81B1039
:1042C00041EA032109B2ADF80C109DF81C309DF8AD
:1042D0001D2042EA032212B2ADF80E209DF81E0006
:1042E0009DF81F3043EA00231BB2ADF81030286858
:1042F0000144296069680A446A60AA681344AB6093
:104300000136F6B2BE4210D2554B5868196805AB5B
:104310000C22C97A0078FEF7A1FD0028A8D04FF042
:10432000FF38404608B0BDE8F081296883220023A9
:1043300008040914FCF744FE00263A463346FCF70D
:104340003FFE286069688322002308040914FCF7F3
:1043500037FE3A463346FCF733FE6860A96883228D
:10436000002308040914FCF72BFE3A463346FCF7F9
:1043700027FEA8602068031400041946B3422CDB12
:10438000C00A3A46334640EA4150C912FCF718FECB
:1043900020606068031400041946002B23DBC00A68
:1043A0003A46334640EA4150C912FCF709FE6060C4
:1043B000A068031400041946002B1ADBC00A3A4611
:1043C000334640EA4150C912FCF7FAFDA0600028CC
:1043D00015DDA0F58030A060A3E740F2FF728018E1
:1043E00043F10001CCE740F2FF72801843F1000175
:1043F000D5E740F2FF72801843F10001DEE700F5D7
:104400008030A0608DE74FF0FF388AE74FF0FF382B
:1044100087E74FF0FF3884E74FF0FF3881E74FF030
:10442000FF387EE74FF0FF387BE74FF0FF3878E743
:104430004FF0FF3875E74FF0FF3872E74FF0FF3865
:104440006FE74FF0FF386CE74FF0FF3869E74FF048
:10445000FF3866E74FF0FF3863E74FF0FF3860E75B
:1044600044000020794B9B7A002B00F0CD8000B5F2
:1044700083B000238DF80730744B586819680DF12C
:1044800007030122C97B0078FEF784FC002840F076
:10449000BE806E4B586819680DF1070301224979F7
:1044A0000078FEF777FC002840F0B480674B58682E
:1044B00019680DF10703012209790078FEF76AFCFB
:1044C000002840F0AA80614B93F82430002B4FD095
:1044D0000C238DF807305D4B586819680DF1070300
:1044E000012209790078FEF755FC002840F09880F9
:1044F000C0238DF80730554B9B7A13F0010F02D083
:10450000E0238DF80730514B586819680DF1070307
:10451000012209790078FEF73DFC002840F08380F5
:104520004A4B5B7C03B302238DF80730474B586836
:1045300019680DF107030122C97B0078FEF72AFCF8
:10454000002873D100238DF80730404B5868196854
:104550000DF10703012249790078FEF71BFC0028C2
:1045600047D04FF0FF3044E000238DF80730DDE7FF
:1045700004238DF80730354B586819680DF107038F
:10458000012209790078FEF705FC002851D12F4B54
:104590009B7C23B92D4B9B7A13F0010F2CD1402328
:1045A0008DF80730294B586819680DF1070301226F
:1045B00009790078FEF7EEFB00283DD1234B5B7CA8
:1045C000F3B101238DF80730204B586819680DF1BD
:1045D00007030122C97B0078FEF7DCFB78BB1B4B8D
:1045E000586853F8101B012249790078FEF7D2FB76
:1045F00040BB03B05DF804FB60238DF80730D1E7C2
:1046000000238DF80730DFE74FF0FF3070474FF0A1
:10461000FF30EEE74FF0FF30EBE74FF0FF30E8E719
:104620004FF0FF30E5E74FF0FF30E2E74FF0FF30AB
:10463000DFE74FF0FF30DCE74FF0FF30D9E74FF016
:10464000FF30D6E74FF0FF30D3E700BF4400002033
:104650000D4B1B7A032B13D8DFE803F002060A0E7A
:10466000FA230380002070474FF4FA730380F9E7C0
:104670004FF47A730380F5E74FF4FA630380F1E7B0
:1046800000230380EEE700BF44000020244B9B7A08
:10469000002B3CD000B583B0B0F57A7F33D00BD877
:1046A000FA2813D0B0F5FA7F03D108238DF807302C
:1046B0000FE04FF0FF3023E0B0F5FA6F03D118237D
:1046C0008DF8073005E04FF0FF3019E000238DF83A
:1046D0000730134B1B7A9DF80720B3EBD20F19D08C
:1046E0000F4B586819680DF107030122897900788A
:1046F000FEF750FB80B99DF80730DB08084A1372BB
:1047000003B05DF804FB10238DF80730E1E74FF0AC
:10471000FF3070470020F3E74FF0FF30F0E700BFB5
:10472000440000200F4B5B7A032B16D8DFE803F020
:10473000020C0F12022303700A4BDB7C83B1037857
:104740005B0003700020704704230370F4E7082324
:104750000370F1E710230370EEE74FF0FF3070476E
:104760000020704744000020234B9B7A002B35D05B
:1047700000B583B002380E2833D8DFE800F00832E5
:104780002332323227323232323232322B0000239D
:104790008DF80730184B5B7A9DF80720B3EBD20FEA
:1047A00024D0154B586819680DF107030122C97907
:1047B0000078FEF7EFFAD8B99DF80730DB080E4A0B
:1047C000537210E008238DF80730E3E710238DF8CB
:1047D0000730DFE718238DF80730DBE74FF0FF30B5
:1047E00070474FF0FF3003B05DF804FB0020FAE79C
:1047F0004FF0FF30F7E700BF440000200F4BDB7A9B
:10480000013B052B17D8DFE803F003070A0D10134F
:10481000BC2303800020704762230380FAE72A2329
:104820000380F7E714230380F4E70A230380F1E70A
:1048300005230380EEE700230380EBE7440000201C
:10484000234B9B7A002B3AD000B583B0BB281AD9F2
:1048500001238DF807301E4BDA7A9DF807309A4213
:1048600030D01B4B586819680DF107030122897875
:104870000078FEF78FFA38BB9DF80720144BDA72E8
:1048800003B05DF804FB612803D902238DF80730DB
:10489000E1E7292803D903238DF80730DBE7132844
:1048A00003D904238DF80730D5E7092803D9052358
:1048B0008DF80730CFE706238DF80730CBE74FF0B0
:1048C000FF3070470020DBE74FF0FF30D8E700BF34
:1048D00044000020054B93F8243023B9034BDB89B7
:1048E0000380002070474FF0FF30704744000020E5
:1048F0000D4B1B7A032B13D8DFE803F002060A0ED8
:104900000A4B036000207047094B0360002070478A
:10491000084B036000207047074B0360002070477E
:104920004FF0FF30704700BF4400002000000343F9
:10493000000083423333034233338341114B5B7AAC
:10494000032B1AD8DFE803F0020D11154FF4804352
:1049500003800C4BDB7C9BB103885B080380002049
:10496000704741F69C730380F3E74FF48053038054
:10497000EFE74FF400630380EBE74FF0FF30704741
:104980000020704744000020024B1B7C0370002075
:10499000704700BF4400002070B5174B93F82430D7
:1049A0002BBB00F0FE04144B9B7A13B3124A167C07
:1049B00023401374A3420BD04FF0FF3514B90E4BB4
:1049C0001B7D3BB10120FFF7EDFA3CB9284670BDD5
:1049D0000025F3E70020FFF7E5FAF6E7FFF742FDD1
:1049E0000028F3D0044B1E744FF0FF35EEE700258E
:1049F000ECE74FF0FF35E9E744000020584B9B7C83
:104A0000834200F09C8010B582B00446002844D058
:104A1000534B586819680DF1070301220979007892
:104A2000FEF71CFA002840F08C809DF8073023F038
:104A300020038DF807304A4B586819680DF10703B9
:104A4000012209790078FEF7A5F900287CD103201E
:104A5000FEF790FF02238DF80730414B93F8223088
:104A600013B182238DF807303D4B93F823302BB1DF
:104A70009DF8073043F030038DF80730384B586805
:104A800019680DF107030122097D0078FEF782F90C
:104A9000002844D04FF0FF3044E0314B586819688B
:104AA0000DF10703012209790078FEF7D7F90028F4
:104AB0004DD12B4B9B7A13F0010F35D09DF8073069
:104AC00043F020038DF80730254B586819680DF125
:104AD0000703012209790078FEF75CF9002839D133
:104AE0000320FEF747FF1E4B93F822301BB38023B1
:104AF0008DF807301A4B93F823302BB19DF807300F
:104B000043F030038DF80730154B586819680DF1E4
:104B100007030122097D0078FEF73CF9E8B9104B44
:104B20009C74002002B010BD9DF8073023F02003D4
:104B30008DF80730C8E700238DF80730DAE700204A
:104B400070474FF0FF30EDE74FF0FF30EAE74FF0EE
:104B5000FF30E7E74FF0FF30E4E74FF0FF30E1E7E9
:104B6000440000201B4B93F8233083422DD010B516
:104B700082B0044628B330238DF80730154B9B7C58
:104B80002BB19DF8073043F002038DF80730114B2D
:104B900093F822302BB19DF8073063F07F038DF836
:104BA00007300C4B586819680DF107030122097D85
:104BB0000078FEF7EFF850B9064B83F8234002B0B7
:104BC00010BD00238DF80730D8E7002070474FF064
:104BD000FF30F4E74400002010B582B028285ED8EA
:104BE0000446D0B90020FFF7BDFF00238DF8043044
:104BF00007238DF805302E4B5868196801AB022247
:104C0000897C0078FEF7C6F8044600284AD1284B74
:104C100000221A75204602B010BD0120FFF7A2FF46
:104C200020238DF80430012C24D0052C29D9142CF4
:104C30002ED802238DF805300A20FFF701FE9DF8DB
:104C400005309B0143F007038DF80530184B586879
:104C5000196801AB0222897C0078FEF79BF80446B4
:104C600018BB134B08229A72187301221A75FFF7AA
:104C700093FECFE700238DF805300520FFF7E0FD18
:104C8000DDE701238DF805300520FFF7D9FDD6E7D4
:104C900003238DF805301420FFF7D2FDCFE74FF046
:104CA000FF34B7E74FF0FF34B4E74FF0FF34B1E71C
:104CB0004400002010B582B0264B9B7A002B3FD0D9
:104CC0000446244B93F82430002B3CD1214B1B7D10
:104CD00033B1431E9BB2272B0AD90020FFF77CFF7C
:104CE000032C0AD9B4F57A7F08D94FF47A7405E019
:104CF000C0B2FFF771FF00241FE004244FF47A7064
:104D000090FBF4F4013C8DF80740124B5868196889
:104D10000DF10703012249780078FEF73BF80446BD
:104D2000A0B99DF80700431C4FF47A7090FBF3F094
:104D3000084BD8814008FFF783FD204602B010BD24
:104D40004FF0FF34F9E74FF0FF34F6E74FF0FF3450
:104D5000F3E700BF4400002030B583B0044610F0F4
:104D6000700F51D001238DF80730344B5868196803
:104D70000DF107030122897C0078FEF70BF800286B
:104D80004BD19DF8073003F0BF032C4A1373002367
:104D90008DF8073014F0400F02D104238DF807304E
:104DA00014F0200F05D19DF8073043F002038DF871
:104DB000073014F0100F05D19DF8073043F00103C0
:104DC0008DF8073014F0080F05D19DF8073043F037
:104DD00038038DF80730194B586819680DF107032F
:104DE0000122C97C0078FDF7D5FF0546D8B90CB182
:104DF000082C1ED1114B9C7200221A753220FEF72E
:104E0000B9FD284603B030BD18B100238DF8073036
:104E1000ABE740238DF80730A7E7084B00229A72D2
:104E20004FF0FF35EDE7054B00229A724FF0FF354A
:104E3000E7E70020FFF796FEDCE700BF4400002014
:104E400010B582B080238DF80030674B5868196820
:104E50006B460122897C0078FDF79CFF002840F01A
:104E6000A4806420FEF786FD00238DF800305E4BA1
:104E7000586819686B460122897C0078FDF78AFF23
:104E8000002840F09580584B586819686B460622F8
:104E9000897D0078FDF7E2FF002840F08C809DF8C6
:104EA0000510890001F004019DF803305B0003F058
:104EB000020319439DF9013003F00103194352D055
:104EC000012946D0022948D1474B0022DA74464BCB
:104ED000FF229A721A725A72DA724FF6FF71D981F2
:104EE0001A749A7401221A7383F82220002283F81C
:104EF00023205A751A75C3F81620C3F81A20C3F870
:104F00001E2083F8242083F82520DA844FF4FA60E9
:104F1000FFF7BCFB002854D10220FFF725FC002836
:104F200052D12A20FFF78CFC002850D13220FFF705
:104F3000C1FE00284ED1FFF72FFD00284DD1FFF70D
:104F40005DFD044600284BD1FFF706FF204602B066
:104F500010BD254B0122DA74B9E7244800F0AEFFFA
:104F60004FF0FF34F2E7204B586819686B46012276
:104F7000C9780078FDF772FF00BB9DF8003013F090
:104F80000F0305D0042B09D0174B0022DA749EE7DB
:104F9000174800F0F5FF4FF0FF34D7E7154800F051
:104FA000EFFF114B0122DA7491E74FF0FF34CDE7A8
:104FB0004FF0FF34CAE74FF0FF34C7E74FF0FF343C
:104FC000C4E74FF0FF34C1E74FF0FF34BEE74FF0C6
:104FD000FF34BBE74FF0FF34B8E74FF0FF34B5E7DD
:104FE0004FF0FF34B2E700BF44000020BCC300080C
:104FF000E4C3000834C400083AB370B582B00C466C
:105000001646194B9B7A1BB3030A8DF80430C0B2C5
:105010008DF805000844144B5D686B8998421ADCD2
:10502000114B196801AB0222097E2878FDF7B2FE08
:10503000A0B90D4B586819683346E2B2497D007833
:10504000FDF7A8FE68B902B070BD4FF0FF307047A1
:105050004FF0FF30F7E74FF0FF30F4E74FF0FF304D
:10506000F1E74FF0FF30EEE7440000203AB370B5AF
:1050700082B00C461646194B9B7A1BB3030A8DF877
:105080000430C0B28DF805000844144B5D686B898C
:1050900098421ADC114B196801AB0222097E28786C
:1050A000FDF778FEA0B90D4B586819683346E2B297
:1050B000497D0078FDF7D2FE68B902B070BD4FF0AF
:1050C000FF3070474FF0FF30F7E74FF0FF30F4E765
:1050D0004FF0FF30F1E74FF0FF30EEE744000020E3
:1050E0002DE9F04F87B09A46294B93F82530002BD5
:1050F0003CD107468846914600293AD00024BC425C
:105100001BD23E1B102EA8BF1026B5B208EB040B15
:105110005A4629462046FFF76FFF68BB02AA294678
:105120002046FFF7A3FF50BB2A4602A9584600F0CD
:105130003FFE38BB2C44A4B2E1E74FEA19238DF8B7
:1051400004308DF80590124B5868196801AB0222A3
:10515000897E0078FDF71EFEB8B90D4B012283F859
:105160002520A3F826A007B0BDE8F08F4FF0FF3050
:10517000F9E74FF0FF30F6E74FF0FF30F3E74FF07D
:10518000FF30F0E76FF00100EDE74FF0FF30EAE7A6
:1051900044000020234B93F8243083423CD030B5A8
:1051A00083B018B31F4B93F82530002B36D0002066
:1051B000FEF7F8FE0020FFF721FC1A4DE88CFFF700
:1051C00079FD00248DF8074068680DF1070301227E
:1051D00023210078FDF7DEFD012085F82400FEF78D
:1051E000E1FEFFF73FF9204603B030BD0020FEF797
:1051F000D9FE0C4D2B7C8DF8073068680DF1070344
:10520000012223210078FDF7C5FD002485F8244004
:10521000FFF728F92046E7E7002070474FF0FF30FE
:10522000E2E700BF440000202DE9F04188B00546C8
:105230000E463D4B93F82470FFB901A8FFF708FA1A
:105240000DF10700FFF76EFA6846FFF7D7FA0DF188
:105250000200FFF73FFB344B93F80A800DF1060084
:10526000FFF792FB0024012C0CDC0022314628467B
:10527000FEF7E4FE30B10134F5E70020FFF78AFFC6
:105280000127DAE7022C1FD00024012C07DC0122C1
:1052900002A905A8FEF7D2FE08B10134F5E7022CF9
:1052A00014D002A93046FEF7A5FDC6B205A92846CE
:1052B000FEF7F4FD10F0FF0F04D000243EB944F0D7
:1052C000020404E00124F9E7002400E00024164B66
:1052D000FF221A725A72DA724FF6FF71D9819A72EE
:1052E0001A7401221A73BDF80400FFF7CFF99DF874
:1052F0000700FFF739FABDF80000FFF7A1FABDF883
:105300000200FFF7D7FC4046FFF726FD9DF8060098
:10531000FFF742FB1FB9204608B0BDE8F08101202D
:10532000FFF738FFF7E700BF4400002008B5C823A7
:105330004FF48062024940F6F630FFF7D1FE08BD17
:10534000DCC4000810B586B004464C4B1B68ADF8B1
:105350000C301B0C8DF80E30494B1B68ADF8083033
:105360001B0C8DF80A30474B1B68ADF804301B0C42
:105370008DF80630444B1B68ADF800301B0C8DF8DF
:10538000023000F0030101F118030DEB030111F8E5
:105390000C3C8DF81430C0F3C10202F118030DEB80
:1053A000030212F80C3C8DF81530C0F3811318334A
:1053B0006B4413F80C0C8DF8160011F8101C8DF8C6
:1053C000101012F8102C8DF8112013F8103C8DF8E5
:1053D000123005AA032140F22640FFF70DFE0028F7
:1053E00040D104AA032140F22A40FFF705FE00281D
:1053F0003BD1019BADF814301B0C8DF81630009B8F
:10540000ADF810301B0C8DF8123014F0040F05D0DD
:1054100037238DF8143027238DF8103014F0200F27
:1054200005D057238DF8153047238DF8113014F42B
:10543000807F05D077238DF8163067238DF81230E2
:1054400005AA03214FF48860FFF7D6FD80B904AAAE
:10545000032140F23140FFF7CFFD60B90B4B1C81B7
:1054600006B010BD4FF0FF30FAE74FF0FF30F7E71E
:105470004FF0FF30F4E74FF0FF30F1E7A4C400082D
:10548000A8C40008ACC40008B0C40008C40F0020C1
:1054900030B585B0404B1B8903F0030250F8222041
:1054A000019213F0040F01D052420192C3F3C102E2
:1054B00050F82220029213F0200F01D052420292A3
:1054C000C3F3811250F82220039213F4807F01D09D
:1054D00052420392019BD817304AA3FB023102FBD0
:1054E00000119B0F43EA810301930299C817A1FBA6
:1054F000021502FB0055890F41EA85050295039CC0
:10550000E017A4FB024102FB0012A40F44EA82044C
:1055100003941A0E8DF80020C3F307428DF8012082
:10552000C3F307228DF802208DF803306A46042168
:105530004FF47470FFF760FD40BB2B0E8DF8003008
:10554000C5F307438DF80130C5F307238DF802300A
:105550008DF803506A4604214FF47570FFF74CFD37
:10556000B8B9230E8DF80030C4F307438DF801302D
:10557000C4F307238DF802308DF803406A460421F6
:105580004FF47670FFF738FD05B030BD4FF0FF30B7
:10559000FAE74FF0FF30F7E7C40F002009E3CA0233
:1055A00010B588B004460DF10600FFF7C7F9BDF845
:1055B00006C04FEACC3C364B1A8902F0030354F87C
:1055C0002330059312F0040F01D05B420593C2F320
:1055D000C10354F82330069312F0200F01D05B4230
:1055E0000693C2F3811354F82330079312F4807F9B
:1055F00001D05B4207930599CA17A1FB0C130CFB62
:105600000233890F41EA83010591069AD017A2FB64
:105610000C230CFB0033920F42EA83020692079B95
:10562000DC17A3FB0C300CFB040C9B0F43EA8C0330
:105630000793080E8DF80800C1F307408DF80900A4
:10564000C1F307208DF80A008DF80B10110E8DF8AC
:105650000C10C2F307418DF80D10C2F307218DF82D
:105660000E108DF80F201A0E8DF81020C3F307428C
:105670008DF81120C3F307228DF812208DF8133016
:1056800002AA0C214FF42570FFF7B6FC08B010BD3C
:10569000C40F002010B586B00446164B93E80700EF
:1056A00006AB03E90700C82C1AD8C82393FBF4F310
:1056B000013B1A0E8DF804208DF8053001AA022155
:1056C00040F21620FFF798FC68B903AA0C2140F6B7
:1056D000C120FFF791FC48B9074B9C8106B010BD73
:1056E0004FF0FF30FAE74FF0FF30F7E74FF0FF30B1
:1056F000F4E700BFB4C40008C40F002070B582B046
:10570000044610F0070F00F0AC800846B1F5C86FF2
:1057100000F2AA80FBF7F0F95B49FBF7F9FA0546BE
:105720000DF10300FEF7FEFF9DF80330023B0E2B48
:1057300000F29D80DFE803F0089B2C9B9B9B3C9B29
:105740009B9B9B9B9B9B4C004FF08D412846FBF7FE
:105750002BFAFBF715FC86B24C492846FBF724FAD6
:10576000FBF70EFC80B2330A8DF804308DF805602B
:10577000030A8DF806308DF8070014F0010F37D1B9
:1057800014F0020F48D114F0040F58D1002070E03B
:105790004FF08C412846FBF707FAFBF7F1FB86B286
:1057A0003B492846FBF700FAFBF7EAFB80B2DAE751
:1057B0004FF08B412846FBF7F7F9FBF7E1FB86B288
:1057C00034492846FBF7F0F9FBF7DAFB80B2CAE769
:1057D0004FF08A412846FBF7E7F9FBF7D1FB86B289
:1057E0002D492846FBF7E0F9FBF7CAFB80B2BAE780
:1057F00001AA02214FF4EA70FFF7FEFB00283AD11C
:105800000DF1060202214FF49270FFF7F5FB00281C
:10581000B6D04FF0FF302CE001AA02214FF4EC701B
:10582000FFF7EAFB50BB0DF1060202214FF4947022
:10583000FFF7E2FB0028A6D04FF0FF3019E001AAE5
:1058400002214FF4EE70FFF7D7FBD0B90DF106023D
:1058500002214FF49670FFF7CFFB50B14FF0FF30AD
:1058600007E04FF0FF3004E04FF0FF3001E04FF071
:10587000FF3002B070BD4FF0FF30FAE74FF0FF305D
:10588000F7E74FF0FF30F4E70000484300004046E0
:105890000000C045000040450000C04400B583B092
:1058A00000238DF8073010F0010F02D030238DF85F
:1058B000073010F0020F05D09DF8073043F00C03BD
:1058C0008DF8073010F0040F05D09DF8073043F035
:1058D00003038DF807300DF1070201214FF4A47086
:1058E000FFF78AFB03B05DF804FB00B583B020B17D
:1058F0000346042802D9042300E00123013B8DF86C
:1059000007300DF10702012140F24F10FFF774FB41
:1059100003B05DF804FB000000B583B0094BA3FBA6
:105920000030830A8DF80430C0F387008DF805003D
:1059300001AA02214FF4EF70FFF75EFB03B05DF8A0
:1059400004FB00BFCDCCCCCC00B583B0094BA3FB8E
:105950000030830A8DF80430C0F387008DF805000D
:1059600001AA02214FF4ED70FFF746FB03B05DF88A
:1059700004FB00BFCDCCCCCC00B583B00E4B83FB79
:105980000023C017C0EBA31000FB01F10B0E8DF834
:105990000430C1F307438DF80530C1F307238DF8B8
:1059A00006308DF8071001AA04214FF4AE70FFF7FE
:1059B00023FB03B05DF804FBD34D621000B583B048
:1059C000084BA3FB00308308800A8DF804008DF893
:1059D000053001AA02214FF4AD70FFF70DFB03B0B3
:1059E0005DF804FBCDCCCCCC00B583B0084BA3FB59
:1059F00000308308800A8DF804008DF8053001AA74
:105A000002214FF4AC70FFF7F7FA03B05DF804FB26
:105A1000CDCCCCCC00B585B068B10D4A01AB07CA7E
:105A200003C31A7001AA09214FF49760FFF7E4FA43
:105A300005B05DF804FB074A01AB07CA03C31A703F
:105A400001AA09214FF49760FFF7D6FAF0E700BFEB
:105A5000C4C40008D0C4000800B583B0B0B1C023EE
:105A60008DF80430C2238DF80530C4238DF806303C
:105A7000C6238DF8073001AA042140F69820FFF7CD
:105A8000BBFAFEF7EFFC03B05DF804FB4FF08B337D
:105A90000193F0E700B583B0B0B120238DF8043056
:105AA00028238DF8053030238DF8063038238DF803
:105AB000073001AA042140F69E20FFF79DFAFEF769
:105AC000D1FC03B05DF804FB4FF0A3330193F0E782
:105AD0002DE9F04184B0044602238DF80430CA2336
